:020000040800F2
:1000000068060020CD010008DF050008D7020008BF
:10001000DD050008D30200086D070008000000009D
:10002000000000000000000000000000C9060008F9
:10003000D50200080000000013060008CB060008E7
:10004000E7010008E7010008E7010008E7010008F0
:10005000E7010008E7010008E7010008E7010008E0
:10006000E7010008E7010008E7010008E7010008D0
:10007000E7010008E7010008E7010008E7010008C0
:10008000E7010008E7010008E7010008E7010008B0
:10009000E7010008E7010008E7010008E7010008A0
:1000A000E7010008E7010008E7010008E701000890
:1000B000E7010008E7010008E7010008E701000880
:1000C000E7010008E7010008E7010008E701000870
:1000D000E70100086B070008E7010008E7010008D6
:1000E000E7010008E7010008E7010008E701000850
:1000F000E7010008E7010008E7010008E701000840
:10010000E7010008E7010008E7010008E70100082F
:10011000E7010008E7010008E7010008E70100081F
:10012000E7010008E7010008E7010008E70100080F
:1001300000F002F800F03AF80AA090E8000C8244BF
:100140008344AAF10107DA4501D100F02FF8AFF29C
:10015000090EBAE80F0013F0010F18BFFB1A43F0A5
:1001600001031847C4060000E4060000103A24BF4B
:1001700078C878C1FAD8520724BF30C830C144BF0C
:1001800004680C607047000000230024002500264E
:10019000103A28BF78C1FBD8520728BF30C148BFEA
:1001A0000B6070471FB51FBD10B510BD00F058F8AB
:1001B0001146FFF7F7FF00F0EBFA00F076F803B412
:1001C000FFF7F2FF03BC00F07DF80000094880470C
:1001D00009480047FEE7FEE7FEE7FEE7FEE7FEE729
:1001E000FEE7FEE7FEE7FEE704480549054A064B41
:1001F000704700006907000831010008680000200E
:100200006806002068020020680200204FF000020B
:1002100000B5134694469646203922BFA0E80C50FC
:10022000A0E80C50B1F12001BFF4F7AF090728BFD7
:10023000A0E80C5048BF0CC05DF804EB890028BF53
:1002400040F8042B08BF704748BF20F8022B11F07C
:10025000804F18BF00F8012B7047704770477047F8
:10026000754600F02BF8AE4605006946534620F06F
:100270000700854618B020B5FFF7B6FFBDE820405F
:100280004FF000064FF000074FF000084FF0000B52
:1002900021F00701AC46ACE8C009ACE8C009ACE805
:1002A000C009ACE8C0098D46704710B50446AFF3ED
:1002B00000802046BDE81040FFF781BF004870472E
:1002C0000400002001491820ABBEFEE72600020012
:1002D0007047FEE77047FEE7044908B58A690243A4
:1002E0008A6189690140009108BD00000010024048
:1002F000F0B50A68C2F30F2595FAA5F2B2FA82F3B7
:1003000069E001229A402A4264D0082B03D240F2CD
:1003100001129A4006E0A3F108024FF00114944044
:1003200044F080624C68082C0BD10C69C668170A2F
:1003300097FAA7F7B7FA87F726EA1226BC402643B2
:10034000C66092FAA2F700EB1264B7FA87F74FEA99
:10035000870C0F27266807FA0CF7BE4392FAA2F71C
:10036000D1F804E0B7FA87F7BF000EFA07FE46EAB5
:100370000E0626604F68012F01D0092F2AD192FA6C
:10038000A2F7B7FA87F74FEA870C032707FA0CF7AB
:10039000BE4392FAA2F7B7FA87F7D1F808E0BF0098
:1003A0000EFA07FE92FAA2FC46EA0E06BCFA8CFC94
:1003B0004FEA8C0E4FF0040C26600CFA0EFC92FAF9
:1003C000A2F2B2FA82F2CF68920026EA0C069740B7
:1003D0003E4326605B1C35FA03F292D10020F0BD4B
:1003E0004FF47A71B0FBF1F14FF0E020491E41610A
:1003F0000021816105210161704700B5034600F0CD
:1004000033F9186000F006F9586000F011F99860AF
:10041000586800F01BF9D86000BD00000149086071
:1004200070470000000000202DE9FF410446C0682D
:100430000D460126C0F34030002861D1E9686868A4
:10044000E2680843296941F20C639A431143084367
:10045000E060A868216921F4405101432161686985
:10046000616921F44071014361616846FFF7C5FF8E
:100470002548844201D103980CE02448844208D0E6
:100480002348844205D02348844202D02248844233
:1004900036D10298A0B32A6892B300EBC00101EBF9
:1004A00000119200B1FBF2F36420B3FBF0F36FF0A4
:1004B00018077B43B1FBF2F5B1FBF2F705EB8305BF
:1004C000322303EB0515B5FBF0F5B7FBF0F705F0AC
:1004D000F00505EB0715B1FBF2F7B1FBF2F1B1FB4B
:1004E000F0F100266FF01802514307EB810103EB96
:1004F0000111B1FBF0F000F00F00284480B2A060C1
:1005000004B03046BDE8F0810038014000440040AE
:1005100000480040004C00400050004030B58DB015
:100520001C216846FFF772FE142107A8FFF76EFE34
:100530004FF48040FFF7D0FE0420FFF7CDFE2148A6
:1005400007900920089003200024CDE909041E4DDE
:1005500007A92846FFF7CCFE1C4807900420089006
:1005600007A92846FFF7C4FE194800680022C0F317
:100570000220114600F034F80146252000F0F7F87B
:1005800014492020C1F800014FF4E130CDE9000406
:100590000C200294CDE90340059406940E4C694664
:1005A0002046FFF741FF206920F4904020616069F8
:1005B00020F02A006061E06840F40050E0600DB077
:1005C00030BD0000020002040008014004000404E1
:1005D0000CED00E004E000E000380140FEE7FEE73B
:1005E00030B500F00703C3F10704042C00D904243C
:1005F000181D072801D2002300E0DB1E012505FAA3
:1006000004F0401E084098409D406D1E1540284350
:1006100030BD704704494968044A01F0F0010909F6
:10062000515CC840704700000010024010080008EC
:1006300004494968044A01F4E06102EB1121097898
:10064000C84070470010024020080008044949686B
:10065000044A01F4605102EBD1210978C840704787
:1006600000100240200800080648406810F00C0105
:10067000054805D0042903D0082901D100F006B8A7
:10068000704700000010024000127A000B484168D9
:1006900011F480320A4909D0B2F5803F06D1416891
:1006A000084AC1F34041491CB2FBF1F14068022203
:1006B00000F4701002EB9040484370470010024075
:1006C00000093D0000127A0070477047234810B5BA
:1006D000016821F0070141F002010160016801F0A9
:1006E00007010229FAD11E48016841F480310160F6
:1006F0000168C1F340410029FAD0416821F47C111E
:1007000041F4E8114160016841F0807101600168C5
:10071000C1F340610029FAD0416821F0F001416045
:10072000416821F4E06141F480614160416821F455
:1007300060514160416821F0030141F002014160D4
:10074000416801F00C010829FAD1064C2046FFF758
:1007500047FE2046BDE81040FFF760BE0020024083
:100760000010024000A24A0470477047FEE70907E4
:10077000090E002804DB00F1E02080F80014704727
:1007800000F00F0000F1E02080F8141D7047000019
:1007900008B50120FFF7A0FD1948C16941F080515B
:1007A000C161C06900F080500090164801684FF6A2
:1007B000FF021140144A41F4407111430160006886
:1007C0000022C0F302200F21FFF70AFF01464FF07D
:1007D000FF30FFF7CCFF0D48416821F0E061416038
:1007E000416841F000714160FFF770FF2020FFF782
:1007F00073FD0420FFF770FDFFF790FEFEE7000099
:10080000001002400CED00E00000FA05000001407D
:1008100000000000000000000102030406070809B0
:100820000000000001020304480800080000002046
:10083000040000006C0100084C08000804000020BF
:0C08400064060000880100080024F40099
:0400000508000131BD
:00000001FF
